:100000000C9449000C9466000C9466000C946600F5
:100010000C9466000C9466000C9466000C946600C8
:100020000C9466000C9466000C9466000C946600B8
:100030000C9468000C9466000C9466000C94F30712
:100040000C9466000C9466000C9466000C94660098
:100050000C9466000C9466000C9466000C94660088
:100060000C9466000C9466000C9466000C94600876
:100070000C9466000C9466000C946600CE0240035B
:10008000B8031A044A048204BE044005CA0558068F
:10009000AA0611241FBECFEFD4E0DEBFCDBF11E012
:1000A000A0E0B1E0E4EEF1E102C005900D92A230D3
:1000B000B107D9F721E0A2E0B1E001C01D92AB3158
:1000C000B207E1F70E947D080C94F0080C94000040
:1000D0001F920F920FB60F9211242F933F934F93BD
:1000E0005F936F937F938F939F93AF93BF93CF93C0
:1000F000EF93FF938BE091E00E948B028111FACF86
:10010000C0E08BE091E00E946907882329F0CF5F6F
:1001100080910001C813F5CFFF91EF91CF91BF916E
:10012000AF919F918F917F916F915F914F913F918F
:100130002F910F900FBE0F901F901895809585B945
:10014000089595B121E030E001C0220F8A95EAF7C9
:100150002095292325B9089595B121E030E001C00B
:10016000220F8A95EAF7292B25B9089595B121E048
:1001700030E001C0220F8A95EAF7292725B90895B2
:1001800080E0982F9295907F9093ED00EEEEF0E056
:100190001192E83FF105E1F78F5F863091F70895FE
:1001A0002091ED0080E0982F9295907F9093ED0044
:1001B0009091EF00907C19F42093ED0008958F5FEB
:1001C000863089F72093ED008FEF08958091EF003E
:1001D000807C61F08091EE00982F907E903241F00B
:1001E000903441F0903A41F08F7108958FEF089567
:1001F00080E2089580E4089580EA0895BC0190E0CB
:100200002091EF00492F50E02F7030E04217530744
:1002100044F48091FA00FB01E40FF51F80839F5F97
:10022000EFCF08959F92AF92BF92CF92DF92EF925D
:10023000FF920F931F93CF93DF93882309F43FC05E
:100240008091E2008E7731F05091E2005E77569512
:100250005F5F01C051E08091E3008E7031F040910A
:10026000E3004E7046954F5F01C041E08091E4008D
:100270008E70833030F09091E4009E7096959F5F71
:1002800001C092E08091E4008077813138F02091C4
:10029000E400207722952F702F5F01C022E0692FA4
:1002A00070E0640F711D620F711D683071057CF084
:1002B00061E0640F690F620F30E071E00BC031E064
:1002C00070E022E092E068E043E051E003C030E0FB
:1002D00071E068E080E0E82FE295E07FE093ED00D8
:1002E000EEEEF0E01192E83FF105E1F78F5F863026
:1002F00091F7132F072F80E0A0E0B0E0B12CD0E8F9
:10030000AD2EEAE09E2EDD24DA94113009F041C0D2
:100310001093D8001196EFEFE50FEE0FE093E20097
:10032000C22FC695D0E02197E5E0CC0FDD1FEA95FE
:10033000E1F7E42FF0E03197EE0FFF1FEC2BE09395
:10034000E300C22FD0E02197E4E0CC0FDD1FEA9557
:10035000E1F7E92FF0E03197EE0FFF1FEC2BE160A2
:10036000E093E400FD01C3E0F695E795CA95E1F757
:10037000E093E5001092ED001092EE00A092EF00E5
:100380009092D800E091D900E2FFFCCFD092DA0041
:10039000B12CCC24C3943130A9F53091EE0035FF57
:1003A00010C08091EF008F738093EF001092D800FF
:1003B0008091D90082FDFCCF81E000E030E0C12CCB
:1003C000EACF3F7119F001E030E001C031E0E09187
:1003D000DA00E5FF11C0B11008C0F091DA00F06258
:1003E000F093DA00BB24B39407C03091DA00306296
:1003F0003093DA0001E030E0EF7069F211E001E0E3
:1004000030E0C9CF30E0013009F05AC071119F5F70
:10041000993018F1283018F1693129F06F5F70E0D8
:1004200022E092E0F3CF503431F05F5F70E022E0E1
:1004300092E068E0EBCF8091EF008F738093EF0044
:100440001092D8008091D90082FDFCCF80E0C12CB1
:1004500070E022E092E068E033C0963058F0C92F97
:10046000D0E0E22FF0E03196EC17FD0724F42F5F87
:10047000922F01C0292F492F420F762F741B4FEF67
:10048000470F72507830D0F4E22EF12CE42FF0E0D8
:100490003196E90FF11DE701CC0FDD1FCC0FDD1FF9
:1004A000CE17DF075CF0E701CC0FDD1FCE0DDF1D9F
:1004B000EC17FD071CF071E031E002C071E0A6CF3F
:1004C00000E0E1E0CE1609F420CFDF91CF911F913B
:1004D0000F91FF90EF90DF90CF90BF90AF909F90E3
:1004E000089581E08093D8001092E20084E0809328
:1004F000E30083E18093E40081E008950E947102AB
:10050000882341F00E94C0008091D80082608093CF
:10051000D80081E008950F931F93CF93DF9300D00D
:1005200000D0CDB7DEB7FC01818192810C9791F4A8
:100530008285803609F0BDC480818295807F80935A
:10054000ED008091EF008F738093EF001092EE002A
:100550001082AFC48F010E94D0008F3F09F4ABC45A
:1005600090E6D8011A969C931A978C938295807F77
:100570008093ED00EEEEF0E01192E83FF105E1F737
:10058000D8011196ED91FC9112973197EB30F1055E
:1005900008F08EC4E25CFF4F0C94EA08F8018485F1
:1005A000882391F185818295869587709681F8E000
:1005B0009F9F800D11248093F300D80114968C9195
:1005C000149782958695877015969C91B8E09B9FAD
:1005D000800D11248093F200F80183818295869525
:1005E00087709481F8E09F9F800D11248093F10023
:1005F000D80113968C91880F880F880F8093F00094
:100600008091EF00806117C0F801838186958695FF
:1006100086959481F0E29F9F800D11248093F300D2
:10062000D80113968C918295880F807E8093F2007A
:100630008091EF008F7E8093EF0080E0F80197813A
:10064000891760F4D8011896ED91FC911997E80F7D
:10065000F11D90819093FA008F5FF0CF83858823FE
:1006600021F08091F000846003C08091F0008B7FC6
:100670008093F0009091EF00D80117968C9169C09B
:10068000F8018485882391F185818295869587700C
:100690009681F8E09F9F800D11248093F300D8018C
:1006A00014968C91149782958695877015969C91D7
:1006B000B8E09B9F800D11248093F200F8018381A4
:1006C0008295869587709481F8E09F9F800D112414
:1006D0008093F100D80113968C91880F880F880FB2
:1006E0008093F0008091EF00806117C0F801838152
:1006F0008695869586959481F0E29F9F800D1124C2
:100700008093F300D80113968C918295880F807E98
:100710008093F2008091EF008F7E8093EF0080E065
:10072000F8019781891760F4D8011896ED91FC9132
:100730001997E80FF11D90819093FA008F5FF0CF29
:1007400013868091F0008B7F8093F0009091EF00F2
:100750008781892B8093EF008091EF008F738093C6
:10076000EF008091EF0080648093EF0080E0A8C3E9
:10077000D8011C968C911C978823A1F115968C9119
:10078000159782958695877016969C91B8E09B9FE9
:10079000800D11248093F300F80184818295869561
:1007A00087709581F8E09F9F800D11248093F2005F
:1007B000D80113968C91139782958695877014961D
:1007C0009C91B8E09B9F800D11248093F100F8016B
:1007D0008381880F880F880F8093F0008091EF004D
:1007E000806119C0D80113968C91139786958695D0
:1007F000869514969C91B0E29B9F800D1124809366
:10080000F300F80183818295880F807E8093F20047
:100810008091EF008F7E8093EF0081E0D8011B96DE
:100820008C931B978091F00084608093F0009091EE
:10083000EF0023CF19821A821B821C821092F700CC
:100840008A818295869587709B81B8E09B9F800DF9
:1008500011248093F60089818295869587709A810C
:10086000E8E09E9F800D11248093F5008981880F18
:10087000880F880F8093F4009091EF00D8011796AD
:100880008C91892B8093EF008091F4008B7F809373
:10089000F4005CC219821A821B821C821092F7003B
:1008A0008A818295869587709B81B8E09B9F800D99
:1008B00011248093F60089818295869587709A81AC
:1008C000E8E09E9F800D11248093F5008981880FB8
:1008D000880F880F8093F4009091EF00D80117964D
:1008E0008C911797892B8093EF001B961C92809117
:1008F000F40084608093F4008091F0008B7F8093FB
:10090000F00024C219821A821B821C821092F70006
:100910008A818295869587709B81B8E09B9F800D28
:1009200011248093F60089818295869587709A813B
:10093000E8E09E9F800D11248093F5008981880F47
:10094000880F880F8093F4009091EF00D8011796DC
:100950008C911797892B8093EF0081E01B968C93E5
:100960008091F40084608093F4008091F0008460B2
:100970008093F0008091EF008F7DE6C1F8018485BF
:10098000882391F185818295869587709681F8E01C
:100990009F9F800D11248093F300D80114968C91B1
:1009A000149782958695877015969C91B8E09B9FC9
:1009B000800D11248093F200F80183818295869541
:1009C00087709481F8E09F9F800D11248093F1003F
:1009D000D80113968C91880F880F880F8093F000B0
:1009E0008091EF00806117C0F8018381869586951C
:1009F00086959481F0E29F9F800D11248093F300EF
:100A0000D80113968C918295880F807E8093F20096
:100A10008091EF008F7E8093EF008FEF9FEFDC01DE
:100A200089839A83AB83BC838093F7008A81829504
:100A3000869587709B81B8E09B9F800D11248093E1
:100A4000F60089818295869587709A81E8E09E9F5D
:100A5000800D11248093F5008981880F880F880FFD
:100A60008093F4009091EF00D80117968C91892B18
:100A70008093EF008091F4008B7F8093F4000AC292
:100A8000F8018485882391F1858182958695877008
:100A90009681F8E09F9F800D11248093F300D80188
:100AA00014968C91149782958695877015969C91D3
:100AB000B8E09B9F800D11248093F200F8018381A0
:100AC0008295869587709481F8E09F9F800D112410
:100AD0008093F100D80113968C91880F880F880FAE
:100AE0008093F0008091EF00806117C0F80183814E
:100AF0008695869586959481F0E29F9F800D1124BE
:100B00008093F300D80113968C918295880F807E94
:100B10008093F2008091EF008F7E8093EF008FEF43
:100B20009FEFDC0189839A83AB83BC838093F700BA
:100B30008A818295869587709B81B8E09B9F800D06
:100B400011248093F60089818295869587709A8119
:100B5000E8E09E9F800D11248093F5008981880F25
:100B6000880F880F8093F4009091EF00D8011796BA
:100B70008C911797892B8093EF001B961C92809184
:100B8000F40084608093F4008091F0008B7F809368
:100B9000F00080C1F8018485882391F185818295D8
:100BA000869587709681F8E09F9F800D1124809331
:100BB000F300D80114968C911497829586958770CE
:100BC00015969C91B8E09B9F800D11248093F200B4
:100BD000F80183818295869587709481F8E09F9FC4
:100BE000800D11248093F100D80113968C91880F09
:100BF000880F880F8093F0008091EF00806117C00C
:100C0000F80183818695869586959481F0E29F9F71
:100C1000800D11248093F300D80113968C91829556
:100C2000880F807E8093F2008091EF008F7E80930A
:100C3000EF008FEF9FEFDC0189839A83AB83BC8346
:100C40008093F7008A818295869587709B81B8E0B2
:100C50009B9F800D11248093F60089818295869553
:100C600087709A81E8E09E9F800D11248093F500A3
:100C70008981880F880F880F8093F4009091EF008E
:100C8000D80117968C911797892B8093EF0081E0FC
:100C90001B968C938091F40084608093F400809183
:100CA000F00084608093F0008091EF008F7DF0C0B1
:100CB00080E0F8019781891760F4D8011896ED91CA
:100CC000FC911997E80FF11D90819093FA008F5FC6
:100CD000F0CF19821A821B821C821092F7008A813F
:100CE0008295869587709B81F8E09F9F800D1124E7
:100CF0008093F60089818295869587709A8128E095
:100D0000929F800D11248093F5008981880F880FB0
:100D1000880F8093F4009091EF00D80117968C9182
:100D20001797892B8093EF0081E01B968C9380911D
:100D3000F40084608093F4008091F00084608093DC
:100D4000F0008091EF0080628093EF008091F400CA
:100D50008E7FA3C0F8018485882391F185818295D7
:100D6000869587709681F8E09F9F800D112480936F
:100D7000F300D80114968C9114978295869587700C
:100D800015969C91B8E09B9F800D11248093F200F2
:100D9000F80183818295869587709481F8E09F9F02
:100DA000800D11248093F100D80113968C91880F47
:100DB000880F880F8093F0008091EF00806117C04A
:100DC000F80183818695869586959481F0E29F9FB0
:100DD000800D11248093F300D80113968C91829595
:100DE000880F807E8093F2008091EF008F7E809349
:100DF000EF0080E0F8019781891760F4D801189618
:100E0000ED91FC911997E80FF11D90819093FA00F4
:100E10008F5FF0CF8FEF9FEFDC0189839A83AB83E5
:100E2000BC838093F7008A818295869587709B8129
:100E3000F8E09F9F800D11248093F60089818295B0
:100E4000869587709A8128E0929F800D1124809367
:100E5000F5008981880F880F880F8093F4009091A6
:100E6000EF00D80117968C911797892B8093EF008C
:100E700081E01B968C938091F40084608093F40051
:100E80008091F00084608093F0008091EF00806298
:100E90008093EF008091F40081608093F400809152
:100EA000EF008F738093EF008091EF0080685CCC3F
:100EB000F80112865BCC8FE1D8011A968C938FEFE4
:100EC0000F900F900F900F90DF91CF911F910F9186
:100ED00008951F93CF93DF93EC019A85992309F42A
:100EE0007BC09F3109F478C09F3F09F475C08881A9
:100EF0008295807F8093ED000E94E600182F80325B
:100F000059F020F4882309F469C05EC0803409F4E4
:100F100051C0803A09F058C08091EF008F708F83E4
:100F2000888599850E94FE008091F00082FB8827C9
:100F300080F98B878091EF0084FF29C081E08C8746
:100F40008091F3008695869586958E838091F20038
:100F50009091F30086958695869520E2929F800D6C
:100F600011248D838091F1009091F20086958695F1
:100F7000869520E2929F800D11248C838091F00051
:100F80009091F10086958695869520E20FC01C868B
:100F90008091F3008295869587708C838091F20012
:100FA0009091F30082958695877028E0929F800D3E
:100FB00011248B831A878091EF008F738093EF0049
:100FC0001092EE0080E00BC01A878091EF008F73C3
:100FD0008093EF001092EE0082E001C081E0DF918B
:100FE000CF911F9108951F920F920FB60F92112467
:100FF0008F9381E080930A018F910F900FBE0F9025
:101000001F90189510926E0082E084BD85BD0895F2
:1010100010920A0116BC87BD82E080936E00809119
:101020000A018823E1F308950F931F93CF93DF9371
:101030008C01C0E0D0E0C017D10771F08FEF0E94A3
:1010400008088FEF0E9408088FEF0E9408088BEEB7
:101050000E9408082196EFCFDF91CF911F910F9149
:1010600008951092180190917A00946090937A00FC
:1010700090917C00906C90937C0090917C00907F8C
:1010800090937C0090917C00892B80937C008091D0
:101090007A00886080937A0080917A0080688093DB
:1010A0007A00789480917A00806480937A008091AD
:1010B00018018823E1F38091190190911A01089594
:1010C0001F920F920FB60F9211242F938F939F931D
:1010D000809178002091790090E0922B90931A01F2
:1010E0008093190181E0809318019F918F912F9136
:1010F0000F900FBE0F901F90189580E880936100AD
:101100001092610014B880E00E949E0017B818B8D1
:101110001AB81BB81DB81BB80E94020880E00E94D4
:101120007E0278948AEA0E949E0082E390E00E9408
:10113000140880E00E949E0080E28AB91BB885E412
:101140008093030183E28093040182E091E0909315
:10115000140180931301109217011092160188E078
:101160008093120181E890E090930F0180930E012B
:1011700082E090E090930D0180930C0180918100BA
:101180008A608093810080916F00826080936F00FD
:1011900080EA9FE09093890080938800C0E204E198
:1011A0001BE0D2EB84E00E943108CBB980930201AE
:1011B00090930301C093040110920501009306016E
:1011C0009093070110930801D093090184E60E94CF
:1011D0000808E8CFEE0FFF1F0590F491E02D099469
:0411E000F894FFCFB1
:0211E4001400F5
:00000001FF
